:100000000C9462000C948A000C948A000C948A0070
:100010000C948A000C948A000C948A000C948A0038
:100020000C948A000C948A000C948A000C948A0028
:100030000C948A000C948A000C948A000C948A0018
:100040000C941B040C948A000C948A000C948A0073
:100050000C948A000C948A000C948A000C948A00F8
:100060000C948A000C948A000000000023002600F3
:10007000290000000000240027002A0000000000E2
:10008000250028002B0004040404040404040202D4
:100090000202020203030303030301020408102007
:1000A0004080010204081020010204081020000012
:1000B0000008000201000003040700000000000027
:1000C0000000870611241FBECFEFD8E0DEBFCDBFF2
:1000D00011E0A0E0B1E0E6E1F2E102C005900D928E
:1000E000A234B107D9F721E0A2E4B1E001C01D922A
:1000F000AB36B207E1F710E0C2E6D0E004C02197CA
:10010000FE010E940309C136D107C9F70E94AA0463
:100110000C9409090C94000090E0FC01E255FF4F9B
:100120002491FC01E656FF4F3491FC01EA57FF4F42
:10013000E491EE23C9F0222339F0233001F1A8F431
:10014000213019F1223029F1F0E0EE0FFF1FE458C1
:10015000FF4FA591B4918FB7F894EC91611126C02F
:1001600030953E233C938FBF08952730A9F0283067
:10017000C9F0243049F7809180008F7D03C08091C1
:1001800080008F7780938000DFCF84B58F7784BD28
:10019000DBCF84B58F7DFBCF8091B0008F778093CC
:1001A000B000D2CF8091B0008F7DF9CF3E2BDACF57
:1001B000CF93DF9390E0FC01E656FF4F24918A57DE
:1001C0009F4FFC0184918823D1F090E0880F991F04
:1001D000FC01EE58FF4FA591B491FC01E458FF4F8C
:1001E000C591D49161110EC09FB7F8948C91E22F04
:1001F000E0958E238C932881E223E8839FBFDF91D3
:10020000CF9108958FB7F894EC91E22BEC938FBFC8
:10021000F6CF3FB7F89480914F0190915001A09193
:100220005101B091520126B5A89B05C02F3F19F08E
:100230000196A11DB11D3FBFBA2FA92F982F882766
:10024000BC01CD01620F711D811D911D42E0660F41
:10025000771F881F991F4A95D1F708958F929F9213
:10026000AF92BF92CF92DF92EF92FF924B015C016F
:100270000E9409016B017C010E9409016C197D0932
:100280008E099F09683E734081059105A8F321E01E
:10029000821A9108A108B10888EEC80E83E0D81E22
:1002A000E11CF11C81149104A104B10429F7FF9011
:1002B000EF90DF90CF90BF90AF909F908F90089578
:1002C000AF92BF92CF92DF92EF92FF920F931F9364
:1002D000CF93DF936C017B018B01040F151FEB01A2
:1002E0005E01AE18BF08C017D10759F06991D60159
:1002F000ED91FC910190F081E02DC6010995892BCB
:1003000079F7C501DF91CF911F910F91FF90EF9089
:10031000DF90CF90BF90AF900895089590E080E077
:100320000895FC0101900020E9F73197AF01481BC7
:10033000590BBC0183E591E00C9460018F929F9270
:10034000AF92BF920F931F93CF93DF93CDB7DEB7DA
:10035000A1970FB6F894DEBF0FBECDBF19A24230F1
:1003600008F44AE08E010F5D1F4F842E912CB12CB2
:10037000A12CA50194010E94E108E62FB901CA0150
:10038000EA30F4F4E05DD801EE938D01232B242BA9
:10039000252B79F790E080E0109719F0CD010E94AD
:1003A0009101A1960FB6F894DEBF0FBECDBFDF91CD
:1003B000CF911F910F91BF90AF909F908F90089514
:1003C000E95CE1CF0C949101CF93DF93EC0160E005
:1003D0008E810E948C0061E08E810E948C0060E022
:1003E0008E810E948C008BE891E00197F1F7DF91FC
:1003F000CF910895CF92DF92EF92FF920F931F93C8
:10040000CF93DF936C017C0187E0E80EF11CD0E014
:10041000C0E0062F10E0B8010C2E02C0759567955C
:100420000A94E2F76170F70181917F010E948C00CC
:100430002196C430D10579F7C601DF91CF911F9184
:100440000F91FF90EF90DF90CF900C94E401CF924A
:10045000DF92EF92FF920F931F93CF93DF93EC0104
:10046000F62E642F8C810E948C008D818F3F19F0B5
:1004700060E00E948C000F2D10E08F8584FF25C066
:100480006E0187E0C80ED11CF12CE12CB8010E2CB6
:1004900002C0759567950A94E2F76170F601819143
:1004A0006F010E948C00FFEFEF1AFF0A88E0E81648
:1004B000F10461F7CE01DF91CF911F910F91FF9071
:1004C000EF90DF90CF900C94E401B80184E0759533
:1004D00067958A95E1F7CE010E94FA016F2DCE0152
:1004E000DF91CF911F910F91FF90EF90DF90CF9010
:1004F0000C94FA0140E0682F83E591E00C94270208
:1005000081E00E947A028BE39FE10197F1F7089561
:10051000CF93DF93823029F4909162019860909399
:100520006201809366011092670180E48093680104
:1005300080E18093690180E580936A0161E08091A8
:1005400057010E94D800809158018F3F19F061E057
:100550000E94D80061E0809159010E94D800C3E553
:10056000D1E09E01235531408091620184FD0BC092
:1005700084E090E021962817390744F461E08E81E9
:100580000E94D800EECF88E090E0F4CF8BE39DE0AE
:100590000197F1F760E0809157010E948C0060E0C4
:1005A000809159010E948C00809158018F3F19F071
:1005B00060E00E948C008091620184FD34C063E0A1
:1005C00083E591E00E94FA01CBE4D6E4CE010197E5
:1005D000F1F763E083E591E00E94FA012197F1F7DA
:1005E00063E083E591E00E94FA0183E592E00197E0
:1005F000F1F762E083E591E00E94FA0180916201E7
:1006000080620E947A0284E0809363018CE00E9401
:100610007A020E94800282E08093640186E0DF918A
:10062000CF910C947A0280620E947A028BE496E465
:100630000197F1F78091620180620E947A0283E55E
:1006400092E00197F1F78091620180620E947A0244
:10065000D5CF90916601891710F08FEF890FE82FA1
:10066000F0E0ED5AFE4F848980680C947A0241E0F4
:100670000E94270281E090E008954F925F926F926E
:100680007F928F929F92AF92BF92CF92DF92EF9222
:10069000FF920F931F93CF936B017C01742EAC01DB
:1006A0009B010E94DC08882399F086E391E0CF91BA
:1006B0001F910F91FF90EF90DF90CF90BF90AF9080
:1006C0009F908F907F906F905F904F900C949101CE
:1006D00046015701E894B7F82FEF3FEF4FE75FE788
:1006E000C501B4010E94DC0881110DC02FEF3FEF5E
:1006F0004FE75FE7C501B4010E94120718161CF40A
:100700008CE091E0D4CF2FEF3FEF4FE75FE4C701DC
:10071000B6010E946A0818161CF480E191E0C7CF68
:100720002FEF3FEF4FE75FECC701B6010E941207C2
:1007300087FDF3CF20E030E0A901C701B6010E9498
:10074000120710E000E087FF0CC041E06DE283E596
:1007500091E00E942702F7FAF094F7F8F09401E094
:1007600010E0C0E060E070E080E09FE37C1641F0C4
:1007700020E030E040E251E40E941707CF5FF6CF5F
:10078000A70196010E94A6064B015C010E94890701
:100790002B013C014AE00E949E01080F191FCC2347
:1007A000C9F1C301B2010E94B8079B01AC01C501A8
:1007B000B4010E94A5064B015C0141E06EE283E5B5
:1007C00091E00E9427020F5F1F4FC15018F120E0F7
:1007D00030E040E251E4C501B4010E946F082B01F2
:1007E0003C010E9489074B01B12CA12C4AE0C501B4
:1007F000B4010E949E01080F191FC501B4010E9497
:10080000B8079B01AC01C301B2010E94A5064B01D0
:100810005C01DBCFC801CF911F910F91FF90EF904A
:10082000DF90CF90BF90AF909F908F907F906F9010
:100830005F904F9008951F920F920FB60F92112460
:100840002F933F938F939F93AF93BF9380914B01CF
:1008500090914C01A0914D01B0914E0130914A010F
:1008600023E0230F2D3758F50196A11DB11D2093CC
:100870004A0180934B0190934C01A0934D01B0939A
:100880004E0180914F0190915001A0915101B09182
:1008900052010196A11DB11D80934F01909350010B
:1008A000A0935101B0935201BF91AF919F918F914D
:1008B0003F912F910F900FBE0F901F90189526E833
:1008C000230F0296A11DB11DD2CFCF92DF92EF92DE
:1008D000FF920F931F93E82FF92F05C001501109C4
:1008E0002109310961F1908196239417B9F305C06C
:1008F000015011092109310911F1908196239413B6
:10090000F7CFC12CD12CE12CF12C0AC08FEFC81AE3
:10091000D80AE80AF80A0C151D052E053F0579F0DE
:1009200080818623841791F36C2D7D2D8E2D9F2D34
:100930001F910F91FF90EF90DF90CF90089560E0AE
:1009400070E080E090E01F910F91FF90EF90DF90BA
:10095000CF900895789484B5826084BD84B5816019
:1009600084BD85B5826085BD85B5816085BD80917A
:100970006E00816080936E001092810080918100F2
:1009800082608093810080918100816080938100EA
:10099000809180008160809380008091B1008460AC
:1009A0008093B1008091B00081608093B00080910D
:1009B0007A00846080937A0080917A0082608093CC
:1009C0007A0080917A00816080937A0080917A0029
:1009D000806880937A001092C10060E087E00E94F6
:1009E000D80061E086E00E94D80061E082E00E94C9
:1009F000D80061E083E00E94D80061E084E00E94BA
:100A0000D80061E085E00E94D80082E00E94880260
:100A1000C3E0D0E093E2E92EF12C21EAC22E20E0DF
:100A2000D22E3DE8A32E30E0B32E40E0842E40E0ED
:100A3000942E60E086E00E948C00CE010197F1F7D1
:100A400061E086E00E948C00C7010197F1F760E049
:100A500086E00E948C00F6016491F5018491E82FF4
:100A6000F0E0EE0FFF1FE859FF4F8591949100E3EE
:100A700015E720E030E0462F0E94650461157105FE
:100A80008105910529F06F5F7F4F8F4F9F4F9F70BA
:100A90000E94BA0726E933E44BE05DE30E946F0849
:100AA00020E030E040E05FE30E946F082B013C0152
:100AB000409246015092470160924801709249016C
:100AC00020E030E0A9010E946A0818160CF09CC0D2
:100AD000409242015092430160924401709245015C
:100AE0000E94800280E00E94290384E191E00E943C
:100AF000E201609146017091470180914801909117
:100B0000490142E00E943D038BE191E00E94E20135
:100B10004090460150904701609048017090490113
:100B200020E030E048E453E4C301B2010E946A08C7
:100B300087FD7BC020E030E04AEF53E4C301B201FF
:100B40000E94120718160CF470C081E00E9429035D
:100B50008EE191E00E94E20160E082E00E948C0060
:100B600060E083E00E948C0061E084E00E948C00E1
:100B700060E085E00E948C0068EE73E080E090E029
:100B80000E942E010E94800280E00E94290384E1DD
:100B900091E00E94E20160914601709147018091CD
:100BA00048019091490142E00E943D038BE191E0B0
:100BB0000E94E20181E00E94290389E291E00E9403
:100BC000E20160E083E00E948C0060E085E00E942A
:100BD0008C0061E082E00E948C0061E084E00E9471
:100BE0008C0068EE73E080E090E00E942E0162E3EA
:100BF00070E080E090E00E942E018114910409F4DD
:100C000018CF0E94000015CF8091420190914301BE
:100C1000A0914401B0914501809346019093470112
:100C2000A0934801B09349015BCF20E030E04AEF48
:100C300053E4C301B2010E946A0818160CF04BC0BD
:100C400081E00E9429038EE291E00E94E20161E0CE
:100C500082E00E948C0060E083E00E948C0060E0F3
:100C600084E00E948C0060E085E00E948C0068EEC9
:100C700073E080E090E00E942E010E94800280E0FC
:100C80000E94290384E191E00E94E2016091460103
:100C900070914701809148019091490142E00E9482
:100CA0003D038BE191E00E94E20181E00E94290373
:100CB0008AE391E00E94E20160E082E00E948C0001
:100CC00060E084E00E948C0061E083E00E948C0080
:100CD00061E085E084CF81E00E94290389E291E010
:100CE0000E94E20160E083E00E948C0060E085E009
:100CF0000E948C0061E082E00E948C0061E084E050
:100D00000E948C0068EC70E080E090E06ECFE3E53C
:100D1000F1E01382128284E091E0918380838DE080
:100D200084838FEF85838CE0868388E0878389E0E6
:100D300080878AE081878BE08287138614861586F8
:100D40001686178681E00C9488025058BB27AA2784
:100D50000E94BD060C9430080E94220838F00E94C0
:100D6000290820F039F49F3F19F426F40C941F0849
:100D70000EF4E095E7FB0C941908E92F0E94410856
:100D800058F3BA17620773078407950720F079F4C0
:100D9000A6F50C9463080EF4E0950B2EBA2FA02D47
:100DA0000B01B90190010C01CA01A0011124FF2718
:100DB000591B99F0593F50F4503E68F11A16F04013
:100DC000A22F232F342F4427585FF3CF4695379512
:100DD0002795A795F0405395C9F77EF41F16BA0BD7
:100DE000620B730B840BBAF09150A1F0FF0FBB1F85
:100DF000661F771F881FC2F70EC0BA0F621F731FCE
:100E0000841F48F4879577956795B795F7959E3F2A
:100E100008F0B0CF9395880F08F09927EE0F9795BB
:100E2000879508950E94F50708F481E008950E94CF
:100E30002B070C9430080E94290858F00E942208C1
:100E400040F029F45F3F29F00C94190851110C94DB
:100E500064080C941F080E94410868F39923B1F3B9
:100E6000552391F3951B550BBB27AA2762177307D0
:100E7000840738F09F5F5F4F220F331F441FAA1F64
:100E8000A9F335D00E2E3AF0E0E832D09150504020
:100E9000E695001CCAF72BD0FE2F29D0660F771FCE
:100EA000881FBB1F261737074807AB07B0E809F0B4
:100EB000BB0B802DBF01FF2793585F4F3AF09E3F39
:100EC000510578F00C9419080C9464085F3FE4F322
:100ED000983ED4F3869577956795B795F7959F5F7C
:100EE000C9F7880F911D9695879597F90895E1E0C8
:100EF000660F771F881FBB1F621773078407BA0727
:100F000020F0621B730B840BBA0BEE1F88F7E09581
:100F100008950E94490888F09F5798F0B92F9927A3
:100F2000B751B0F0E1F0660F771F881F991F1AF0D4
:100F3000BA95C9F714C0B13091F00E946308B1E0CE
:100F400008950C946308672F782F8827B85F39F0CD
:100F5000B93FCCF3869577956795B395D9F73EF46D
:100F600090958095709561957F4F8F4F9F4F089515
:100F7000E89409C097FB3EF4909580957095619533
:100F80007F4F8F4F9F4F9923A9F0F92F96E9BB27E9
:100F90009395F695879577956795B795F111F8CF65
:100FA000FAF4BB0F11F460FF1BC06F5F7F4F8F4FD0
:100FB0009F4F16C0882311F096E911C0772321F0C6
:100FC0009EE8872F762F05C0662371F096E8862F5E
:100FD00070E060E02AF09A95660F771F881FDAF7B5
:100FE000880F9695879597F90895990F0008550FE2
:100FF000AA0BE0E8FEEF16161706E807F907C0F09F
:1010000012161306E407F50798F0621B730B840BA6
:10101000950B39F40A2661F0232B242B252B21F480
:1010200008950A2609F4A140A6958FEF811D811D20
:10103000089597F99F6780E870E060E008959FEF5A
:1010400080EC089500240A9416161706180609065F
:10105000089500240A94121613061406050608952E
:10106000092E0394000C11F4882352F0BB0F40F4B6
:10107000BF2B11F460FF04C06F5F7F4F8F4F9F4FF6
:10108000089557FD9058440F551F59F05F3F71F078
:101090004795880F97FB991F61F09F3F79F08795DF
:1010A0000895121613061406551FF2CF4695F1DF68
:1010B00008C0161617061806991FF1CF86957105F8
:1010C000610508940895E894BB2766277727CB012C
:1010D00097F908950E94F50708F48FEF08950E948C
:1010E00082080C9430080E94220838F00E942908D7
:1010F00020F0952311F00C9419080C941F0811246A
:101100000C9464080E94410870F3959FC1F3950FF9
:1011100050E0551F629FF001729FBB27F00DB11D7B
:10112000639FAA27F00DB11DAA1F649F6627B00D0B
:10113000A11D661F829F2227B00DA11D621F739FF4
:10114000B00DA11D621F839FA00D611D221F749F02
:101150003327A00D611D231F849F600D211D822F49
:10116000762F6A2F11249F5750409AF0F1F0882370
:101170004AF0EE0FFF1FBB1F661F771F881F91509D
:101180005040A9F79E3F510580F00C9419080C942B
:1011900064085F3FE4F3983ED4F3869577956795AE
:1011A000B795F795E7959F5FC1F7FE2B880F911DC7
:1011B0009695879597F908950E94F507880B990BE6
:1011C0000895A1E21A2EAA1BBB1BFD010DC0AA1F88
:1011D000BB1FEE1FFF1FA217B307E407F50720F0A0
:1011E000A21BB30BE40BF50B661F771F881F991F1B
:1011F0001A9469F760957095809590959B01AC0164
:10120000BD01CF010895EE0FFF1F0590F491E02D71
:061210000994F894FFCFE1
:1012160000000000370360018E018D01696E6600D3
:101226006F7666004A6172616B3A00636D004265D3
:101236006C6F6B204B697269004D616A750042657F
:101246006C6F6B204B616E616E004D756E647572CE
:02125600000096
:00000001FF
